:060000000A128A11E42F30
:10000C0008008316031307110C3083120313970097
:10001C00FF308316031392000730831203139200F0
:10002C000800F800780803191C281D283128F31F34
:10003C002028212831287009FA007109FB00720967
:10004C00FC007309FD00FA0A0319FB0A0319FC0AE8
:10005C000319FD0A39287308FD007208FC007108A9
:10006C00FB007008FA007308720471047004031D1D
:10007C00402841284A280030F3000030F2000030BC
:10008C00F1000030F000CA289630F90058280130F1
:10009C00F90701300310FD0CFC0CFB0CFA0CFF3EB5
:1000AC00031D5028FE307D05031D5D285E284D285C
:1000BC0078280130F9070130FA07003003180130B5
:1000CC00FB07003003180130FC0700300318013027
:1000DC00FD0701300310FD0CFC0CFB0CFA0CFF3E71
:1000EC00031D7028FF307D05031D7D287E285F28A9
:1000FC008A280130F9020130F4000310FA0DFB0DCF
:10010C00FC0DFD0DF40B8328FC1B8D288E289428E8
:10011C00023079020318932894287F28791897289D
:10012C009828A028FF30FA05FF30FB057F30FC052E
:10013C00FF30FD050310F90C7908F400F501F60108
:10014C00F70118300310F40DF50DF60DF70DFF3E09
:10015C00031DA8287408FA047508FB047608FC042F
:10016C007708FD0478080319BC28BD28C228F31FA2
:10017C00C028C128C228FD177D08F3007C08F200B6
:10018C007B08F1007A08F00008003F308316031357
:10019C00CF008030CE000030CD000030CC00B30159
:1001AC00B4014B08F3004A08F2004908F100480872
:1001BC00F0000030F7000030F6000030F5000030A1
:1001CC00F4000A168A11C1200A128A110318EF28AA
:1001DC00F028B92A0129831603133A08CF003908ED
:1001EC00CE003808CD003708CC000130B307031817
:1001FC00B40A0030B407413083120313A30020303B
:10020C00A2000030A1000030A000831603134F0899
:10021C0083120313A700831603134E0883120313D0
:10022C00A600831603134D0883120313A50083162F
:10023C0003134C0883120313A4000A128A15BE245C
:10024C000A128A1183120313230883160313BA00AC
:10025C0083120313220883160313B90083120313AA
:10026C00210883160313B800831203132008831686
:10027C000313B7004808A0004908A1004A08A200CF
:10028C004B08A3003708A0023808031C380F4F296D
:10029C005029A1023908031C390F55295629A202ED
:1002AC003A08031C3A0F5B295C29A3022308F300CC
:1002BC002208F2002108F1002008F0000A168A1525
:1002CC004B260A128A11F31B7B297308031D7C2908
:1002DC007208031D7C297108031D7C2902307002F1
:1002EC00031D7829031C7B297C29F1288316031311
:1002FC003A0883120313BD008316031339088312C3
:10030C000313BC0083160313380883120313BB00BA
:10031C0083160313370883120313BA0083160313CF
:10032C004B0883120313C100831603134A0883126C
:10033C000313C00083160313490883120313BF0071
:10034C0083160313480883120313BE000A168A117E
:10035C0072220A128A11031CB429B529F1288316BA
:10036C0003134808A0004908A1004A08A2004B0842
:10037C00A3004C08A0024D08031C4D0FC629C72929
:10038C00A1024E08031C4E0FCC29CD29A2024F0806
:10039C00031C4F0FD229D329A3022308F3002208F0
:1003AC00F2002108F1002008F0000A168A154B26ED
:1003BC000A128A11F31BF3297308031DF229720820
:1003CC00031DF2297108031DF22902307002031D6E
:1003DC00EF290318F229F329802A831603134F08F7
:1003EC00CB004E08CA004D08C9004C08C800B92AF9
:1003FC00413083120313BD002030BC000030BB0021
:10040C000030BA00831603134F0883120313C10084
:10041C00831603134E0883120313C00083160313B1
:10042C004D0883120313BF00831603134C08831269
:10043C000313BE000A128A1598200A128A1183121D
:10044C0003133D0883160313CF00831203133C08D8
:10045C0083160313CE00831203133B088316031376
:10046C00CD00831203133A0883160313CC00FF301C
:10047C00B3070318B40AFF30B4074808A0004908B2
:10048C00A1004A08A2004B08A3004C08A0024D088A
:10049C00031C4D0F522A532AA1024E08031C4E0F67
:1004AC00582A592AA2024F08031C4F0F5E2A5F2AB2
:1004BC00A3022308F3002208F2002108F10020080F
:1004CC00F0000A168A154B260A128A11F31B7F2A92
:1004DC007308031D7E2A7208031D7E2A7108031DF2
:1004EC007E2A02307002031D7B2A03187E2A7F2A83
:1004FC00802AF329831603134B0883120313BD00C0
:10050C00831603134A0883120313BC0083160313C8
:10051C00490883120313BB00831603134808831284
:10052C000313BA00831603134F0883120313C1007D
:10053C00831603134E0883120313C0008316031390
:10054C004D0883120313BF00831603134C08831248
:10055C000313BE000A168A1172220A128A11031C96
:10056C00B82AB92AFE29831203136E0883160313C3
:10057C00AD002D08AE00ED1BC42AC52ACA2A6D0891
:10058C00A7006C08A600CE2A0630A6000030A700F3
:10059C002708B2002608B1000130B1070318B20ACF
:1005AC000030B20766302E06031DDD2ADE2AF82A3B
:1005BC00B41FE12AE22AEC2A3F30CF008030CE0073
:1005CC000030CD000030CC00B301B40167302D06F3
:1005DC000319F12AF22AF82A3308B1070318B20AD0
:1005EC003408B207BB01BC014B08C0004A08BF006D
:1005FC004908BE004808BD004F08BA004E08B900B3
:10060C004D08B8004C08B700312C831603134F0863
:10061C0083120313BD00831603134E0883120313B6
:10062C00BC00831603134D0883120313BB008316FF
:10063C0003134C0883120313BA00831603134008E8
:10064C0083120313C100831603133F088312031391
:10065C00C000831603133E0883120313BF008316D6
:10066C0003133D0883120313BE000A128A15982047
:10067C000A128A11831203133D08D7003C08D600D6
:10068C003B08D5003A08D4000A168A1128250A120C
:10069C008A1183120313570883160313C4008312A1
:1006AC000313560883160313C30083120313550850
:1006BC0083160313C2008312031354088316031307
:1006CC00C1004408F3004308F2004208F10041085D
:1006DC00F0000A168A1164210A128A117108831615
:1006EC000313B0007008AF004F0883120313A70068
:1006FC00831603134E0883120313A60083160313E9
:10070C004D0883120313A500831603134C088312A0
:10071C000313A40083160313440883120313A300CA
:10072C0083160313430883120313A20083160313C7
:10073C00420883120313A10083160313410883128A
:10074C000313A0000A128A15BE240A128A118312FE
:10075C0003132308BD002208BC002108BB0020089D
:10076C00BA0083160313400883120313C1008316C7
:10077C0003133F0883120313C000831603133E08B0
:10078C0083120313BF00831603133D088312031354
:10079C00BE000A168A159A260A128A1183120313AE
:1007AC003D0883160313C000831203133C08831601
:1007BC000313BF00831203133B0883160313BE00FD
:1007CC00831203133A0883160313BD0041308312BE
:1007DC000313BD002030BC000030BB000030BA0059
:1007EC00831603134F0883120313C10083160313DC
:1007FC004E0883120313C000831603134D08831293
:10080C000313BF00831603134C0883120313BE009B
:10081C000A128A1598200A128A11831203133D08B2
:10082C0083160313CF00831203133C0883160313A0
:10083C00CE00831203133B0883160313CD008312DF
:10084C0003133A0883160313CC000130BB070318BB
:10085C00BC0A0030BC073C08803AA0003208803A41
:10086C002002031D3B2C31083B02031C3E2C3F2C69
:10087C000B2B403083120313A300A030A2000030D6
:10088C00A1000030A000831603134F08831203133A
:10089C00A700831603134E0883120313A6008316B6
:1008AC0003134D0883120313A500831603134C087E
:1008BC0083120313A4000A128A15BE240A128A1189
:1008CC0083120313230883160313C4008312031328
:1008DC00220883160313C300831203132108831603
:1008EC000313C20083120313200883160313C100E1
:1008FC00400883120313BD00831603133F088312B1
:10090C000313BC00831603133E0883120313BB00AE
:10091C00831603133D0883120313BA0083160313C3
:10092C00440883120313C100831603134308831274
:10093C000313C00083160313420883120313BF0072
:10094C0083160313410883120313BE000A168A117F
:10095C0072220A128A110318B42CB52CC02C003048
:10096C0083160313C4000030C3000030C2000030F3
:10097C00C100E92C831603134008F3003F08F20072
:10098C003E08F1003D08F0004408F7004308F6006B
:10099C004208F5004108F4000A168A11C1200A1217
:1009AC008A11031CDA2CDB2CE92C831603132F1869
:1009BC00E02CE12CE92C0030C4000030C3000030E6
:1009CC00C2000030C100831603134408F30043082F
:1009DC00F2004208F1004108F0004B08F7004A0809
:1009EC00F6004908F5004808F4000A128A1562223C
:1009FC000A128A11730883160313C0007208BF0011
:100A0C007108BE007008BD00400883120313BD00BE
:100A1C00831603133F0883120313BC0083160313BE
:100A2C003E0883120313BB00831603133D08831285
:100A3C000313BA004130A3002030A2000030A10003
:100A4C000030A000831603133A0883120313A70087
:100A5C0083160313390883120313A600831603139A
:100A6C00380883120313A500831603133708831267
:100A7C000313A4000A128A15BE240A128A118312C7
:100A8C0003132308C1002208C0002108BF0020085E
:100A9C00BE000A168A1172220A128A11031C572DE3
:100AAC00582DAB2D013083160313B3070318B40A6A
:100ABC000030B407413083120313A3002030A2008E
:100ACC000030A1000030A000831603133A088312F3
:100ADC000313A70083160313390883120313A6000C
:100AEC0083160313380883120313A500831603130C
:100AFC00370883120313A4000A128A15BE240A12A3
:100B0C008A1183120313230883160313BA0083126A
:100B1C000313220883160313B9008312031321084D
:100B2C0083160313B80083120313200883160313D0
:100B3C00B70066302E06031DA42DA52DAB2D01305C
:100B4C00B1070318B20A0030B207831603133A0830
:100B5C00CF003908CE003808CD003708CC00340857
:100B6C00A5003308A400AC01A801A901BB01BC017C
:100B7C005D2F831603134F0883120313BD008316D6
:100B8C0003134E0883120313BC00831603134D0882
:100B9C0083120313BB00831603134C088312031335
:100BAC00BA0083160313400883120313C100831683
:100BBC0003133F0883120313C000831603133E086C
:100BCC0083120313BF00831603133D088312031310
:100BDC00BE000A128A1598200A128A118312031376
:100BEC003D08D7003C08D6003B08D5003A08D40095
:100BFC000A168A1128250A128A1183120313570820
:100C0C0083160313C40083120313560883160313AD
:100C1C00C30083120313550883160313C2008312F7
:100C2C000313540883160313C1004408F30043084C
:100C3C00F2004208F1004108F0000A168A11642102
:100C4C000A128A117108803AFF0080307F02031D5E
:100C5C00312E0A3070020318342E352E4B2E83168B
:100C6C0003134408F3004308F2004208F100410862
:100C7C00F0000A168A1164210A128A11710883166F
:100C8C000313B0007008AF00512E09308316031304
:100C9C00AF000030B0002C08031D552E562E872EA9
:100CAC00A51F592E5A2E872E4608103E84002E3032
:100CBC00831780000130C6070318C70A0030C70726
:100CCC00FF30B5070318B60AFF30B6070130AC0089
:100CDC00872E4608103E8400303083178000013088
:100CEC00C6070318C70A0030C707FF30B50703183B
:100CFC00B60AFF30B607FF30A8070318A90AFF3061
:100D0C00A90728082904031D8C2E8D2E6F2E46084A
:100D1C00103E84002F08303E831780000130C60738
:100D2C000318C70A0030C707FF30B5070318B60A07
:100D3C00FF30B6074F0883120313A7008316031363
:100D4C004E0883120313A600831603134D08831257
:100D5C000313A500831603134C0883120313A4007A
:100D6C0083160313440883120313A300831603137F
:100D7C00430883120313A200831603134208831241
:100D8C000313A10083160313410883120313A0005D
:100D9C000A128A15BE240A128A118312031323081D
:100DAC00BD002208BC002108BB002008BA00831635
:100DBC000313400883120313C100831603133F0867
:100DCC0083120313C000831603133E08831203130C
:100DDC00BF00831603133D0883120313BE000A16CB
:100DEC008A159A260A128A11831203133D08831658
:100DFC000313C000831203133C0883160313BF00B4
:100E0C00831203133B0883160313BE0083120313D0
:100E1C003A0883160313BD00413083120313BD003F
:100E2C002030BC000030BB000030BA008316031326
:100E3C004F0883120313C100831603134E08831249
:100E4C000313C000831603134D0883120313BF0052
:100E5C00831603134C0883120313BE000A128A155F
:100E6C0098200A128A11831203133D088316031368
:100E7C00CF00831203133C0883160313CE00831296
:100E8C0003133B0883160313CD00831203133A0894
:100E9C0083160313CC00FF30A4070318A50AFF30F8
:100EAC00A5070130BB070318BC0A0030BC073C087F
:100EBC00803AA0003208803A2002031D672F3108C7
:100ECC003B0203186A2F6B2F7A2F831603134708E4
:100EDC00803AFF0080307F02031D762F4B30460294
:100EEC00031C792F7A2FBF2D4F3083160313BB00B1
:100EFC000030BC003B08103E84008317800110308A
:100F0C00A0004608A0023B082007F0001030F100BA
:100F1C004708F3004608F2000A168A1579260A12C9
:100F2C008A118316031346083B02C6004708031CAC
:100F3C00470A3C02C7004508031DA52FA72F013007
:100F4C00A82F0030A000A1012008BB002108BC0084
:100F5C0045080319B22FB32FBF2FFF30C607031854
:100F6C00C70AFF30C7074608103E840045088317A0
:100F7C0080003B08B5023C08031CB603B602831282
:100F8C0003136808A8006908A90083160313460810
:100F9C00103E83120313AA00831603133608831220
:100FAC000313AC0083160313350883120313AB0031
:100FBC000A168A1183200A128A1108008316031359
:100FCC00EA01EB01EC01ED01EE018317B630840070
:100FDC00BE300A168A1509260A128A1110308400AE
:100FEC0060300A168A1509260A128A1183010A161C
:100FFC008A11372E730872047104700403190728C0
:10100C0008280A288030F3060800831603173D08C9
:10101C0083120313A500831603173C0883120313D2
:10102C00A400831603173B0883120313A300831633
:10103C0003173A0883120313A2007308A500720861
:10104C00A4007108A3007008A2002208F400230871
:10105C00F5002408F6002508F70017300310F70CEC
:10106C00F60CF50CF40CFF3E031D3428FF30740510
:10107C00A00000307505A10020082104031D47289D
:10108C0048286B282208F4002308F5002408F600F1
:10109C002508F70001300310F40DF50DF60DF70DD2
:1010AC00FF3E031D51287708760475047404031D54
:1010BC006028612866280230F0000030F100972883
:1010CC000330F0000030F1009728200A2104031DA2
:1010DC007028712893282208F4002308F5002408AE
:1010EC00F6002508F70009300310F40DF50DF60D88
:1010FC00F70DFF3E031D7A287708760475047404F7
:10110C00031989288B2801308C280030F800F9014C
:10111C007808F0007908F10097280430F0000030CE
:10112C00F1000800831203134108CB008030CB057B
:10113C004108C2004207D200C01FA528A628A72834
:10114C00521452080319AB28AC28BC28520A031DB0
:10115C00B028B128B9280030C1000030C0000030E0
:10116C00BF000030BE00C017C101C4280030C10050
:10117C000030C0000030BF000030BE003D08803998
:10118C00CB063D08C2004207D300BC1FCE28CF2897
:10119C00D028531453080319D428D528E528530A0A
:1011AC00031DD928DA28E2280030BD000030BC002D
:1011BC000030BB000030BA00BC17BD01ED28003078
:1011CC00BD000030BC000030BB000030BA003D0850
:1011DC003C043B043A04031DF428F5280C29003088
:1011EC00C1000030C0000030BF000030BE008030B5
:1011FC00C0047F30C1044B08C1044108BD00400845
:10120C00BC003F08BB003E08BA00612A5208031D0F
:10121C00102911291A290030BD000030BC00003003
:10122C00BB000030BA00612A5208C200C301430857
:10123C00C50053084202C400031CC50344087F3E8A
:10124C00CC0045080318013E003ECD004108CA0001
:10125C004008C9003F08C8003E08C7000030C10064
:10126C000030C0000030BF000030BE000030D100A4
:10127C000030D0000030CF000030CE00D3018E29DA
:10128C00530803194A294B296B290130C20003105A
:10129C00C70DC80DC90DCA0DC20B4D290130C200B6
:1012AC000310BE0DBF0DC00DC10DC20B5629D11FB1
:1012BC006029612962293E140130C2000310CE0D51
:1012CC00CF0DD00DD10DC20B64293D084A02031D70
:1012DC0079293C084902031D79293B084802031D62
:1012EC0079293A084702031C7C297D298C2951173E
:1012FC003A08C7023B08031C3B0FC8023C08031CFE
:10130C003C0FC9023D08031C3D0FCA020130D30734
:10131C001A305302031C9329942946294A0849047C
:10132C004804470403199B299C29BB294E14BB294B
:10133C000130C2000310BE0DBF0DC00DC10DC20B9C
:10134C00A029D11FAA29AB29AC293E140130C20017
:10135C000310CE0DCF0DD00DD10DC20BAE29FF3029
:10136C00CC070318CD0AFF30CD07C01FBE29BF29FB
:10137C009E29D301D11FC329C429E029FF304E0572
:10138C00C200FF304F05C300FF305005C4007F3052
:10139C005105C50045084404430442040319D729E8
:1013AC00D829DB290130D300E0293E1CDE29DF29B6
:1013BC00E029D82953080319E429E529162A013014
:1013CC00BE07003003180130BF070030031801308E
:1013DC00C007003003180130C107411CF629F7295A
:1013EC00162A3E08C2003F08C3004008C40041084A
:1013FC00C5000130C600450DC50CC40CC30CC20C95
:10140C00C60B012A4508C1004408C0004308BF00B0
:10141C004208BE000130CC070318CD0A0030CD07BE
:10142C004D08803AFF0080307F02031D1F2AFF30D9
:10143C004C02031C222A232A312AFF308312031365
:10144C00CC000030CD000030C1000030C0000030B6
:10145C00BF000030BE00831203134D08803AFF001A
:10146C0080307F02031D3C2A01304C0203183F2AB6
:10147C00402A4D2A83120313CC01CD010030C10048
:10148C000030C0000030BF000030BE00CB01831222
:10149C0003134C08D200521C542A552A572AC01741
:1014AC00592A7F30C0055208C2000310420CC100FB
:1014BC004B08C104032908007308F8008030F805B4
:1014CC00730883120313A0002007FA00F21F6F2A7F
:1014DC00702A712A7A147A080319752A762A862AB0
:1014EC007A0A031D7A2A7B2A832A0030F300003003
:1014FC00F2000030F1000030F000F217F3018E2AF8
:10150C000030F3000030F2000030F1000030F00049
:10151C007708F9008030F905790878060319972ABD
:10152C00982A992A78177708A0002007F900F61F47
:10153C00A02AA12AA22A791479080319A62AA72A73
:10154C00B72A790A031DAB2AAC2AB42A0030F7005B
:10155C000030F6000030F5000030F400F617F7010B
:10156C00BF2A0030F7000030F6000030F5000030E4
:10157C00F4007A0879020318C42AC52AE92A781FCC
:10158C00C82AC92ACB2A8030F8067A08FB007908C9
:10159C00FA007B08F9007008FB007408F0007B0867
:1015AC00F4007108FB007508F1007B08F500720867
:1015BC00FB007608F2007B08F6007308FB00770846
:1015CC00F3007B08F700FB017908A000A1012108BA
:1015DC00A3007A082002A200031CA3032308803A6C
:1015EC00FF0080307F02031DFD2A1A302202031CEB
:1015FC00002B012B382B7308720471047004031D2B
:10160C00082B0A2B01300B2B0030FB000030F300B1
:10161C000030F2000030F1000030F0007908FA00E0
:10162C003E2B7B1C1A2B1B2B242B7B0883120313A6
:10163C00A0000310200C0138FB00262B0310FB0C20
:10164C00701C292B2A2B2B2BFB1701308312031315
:10165C00A000730DF30CF20CF10CF00CA00B2F2B63
:10166C000130FA0779087A02031C3D2B3E2B172B0D
:10167C00781B412B422B8D2B7A08031D462B472BB5
:10168C00502B0030F3000030F2000030F10000303D
:10169C00F000BD2C7408F007750803110318013E07
:1016AC000319592BF107760803110318013E03198E
:1016BC00602BF207770803110318013E0319672BFF
:1016CC00F307731C6A2B6B2B452C7B1C6E2B6F2B1F
:1016DC00782B7B0883120313A0000310200C013815
:1016EC00FB007A2B0310FB0C701C7D2B7E2B7F2BAD
:1016FC00FB17013083120313A000730DF30CF20CD3
:10170C00F10CF00CA00B832B0130FA07452C73085D
:10171C00803AFF007708803A7F02031D9F2B7608E2
:10172C007202031D9F2B75087102031D9F2B7408F9
:10173C0070020318A22BA32BFC2BFF308312031374
:10174C00A000FF30A100FF30A200FF30A3007408FE
:10175C00A4007508A5007608A6007708A7007008F5
:10176C00A4027108031C710FBC2BBD2BA5027208BF
:10177C00031C720FC22BC32BA6027308031C730F1E
:10178C00C82BC92BA7022408A00725080318250F6E
:10179C00D02BD12BA10726080318260FD62BD72B1D
:1017AC00A20727080318270AA3072308F300220817
:1017BC00F2002108F1002008F0008030F8067B03CD
:1017CC00FF3AFB007B08031DEC2BED2B0A2C0130A0
:1017DC00F007003003180130F10700300318013016
:1017EC00F207003003180130F3070A2C7408F002DA
:1017FC007508031C750FF1027608031C760FF202B4
:10180C007708031C770FF3027308720471047004D9
:10181C00031D112C122C412C7B08031D162C172C8C
:10182C00412C0030F3000030F2000030F1000030A9
:10183C00F000BD2C013083120313A0000310F00D37
:10184C00F10DF20DF30DA00B242CFB1F2E2C2F2CC5
:10185C00302C70147B1C332C342C382C03147B0D43
:10186C00FB003A2C0310FB0D7A0803193E2C3F2C7D
:10187C00412C0130FA02F21F442C452C202CF9018A
:10188C00FB1F492C4A2C582C7B087F3903194F2CF1
:10189C00502C532C0130F900582C701C562C572C02
:1018AC00582C502C790803195C2C5D2C912C013090
:1018BC00F007003003180130F10700300318013035
:1018CC00F207003003180130F307731C6E2C6F2CD9
:1018DC00912C700883120313A0007108A1007208E8
:1018EC00A2007308A3000130A400230DA30CA20CCA
:1018FC00A10CA00CA40B7B2C2308F3002208F200F3
:10190C002108F1002008F0007A0A03198E2C8F2C84
:10191C00912C0130FA077A0A0319952C962C9B2CE2
:10192C007A08031D9A2C9B2CA92C0030F300003054
:10193C00F2000030F1000030F0007A08031DA72CF3
:10194C00A82CA92CF8017A1CAC2CAD2CAF2CF217BE
:10195C00B12C7F30F2057A0883120313A000031018
:10196C00200CF300F81FBB2CBC2CBD2CF31708006B
:10197C00831203132308AD008030AD052308A800A3
:10198C002807B300A21FCB2CCC2CCD2C331433083E
:10199C000319D12CD22CE12C330A031DD62CD72CB5
:1019AC00DF2C0030A3000030A2000030A10000307A
:1019BC00A000A217E92C0030A3000030A2000030D8
:1019CC00A1000030A00027088039AD062708A80028
:1019DC002807B200A61FF32CF42CF52C3214320875
:1019EC000319F92CFA2C092D320A031DFE2CFF2C9D
:1019FC00072D0030A7000030A6000030A5000030F5
:101A0C00A400A617112D0030A7000030A60000304E
:101A1C00A5000030A40032080319152D162D1B2D1E
:101A2C003308031D1A2D1B2D242D0030A30000306C
:101A3C00A2000030A1000030A000FF2F2008F00011
:101A4C0026080A168A1530270A128A15710883127D
:101A5C000313B9007008B8003808A800A901AA013E
:101A6C00AB012B08B1002A08B0002908AF002808E8
:101A7C00AE003908A800A901AA01AB012B08B700D8
:101A8C002A08B6002908B5002808B4002108F0007F
:101A9C0025080A168A1530270A128A15710883122E
:101AAC000313B9007008B8003808A800A901AA01EE
:101ABC00AB012808AE07290803110318013E0319CE
:101ACC00682DAF072A0803110318013E03196F2D67
:101ADC00B0072B0803110318013E0319762DB1072B
:101AEC003908A800A901AA01AB012808B4072908E4
:101AFC0003110318013E0319842DB5072A0803119D
:101B0C000318013E03198B2DB6072B08031103187C
:101B1C00013E0319922DB7072208F00024080A167B
:101B2C008A1530270A128A15710883120313B9001B
:101B3C007008B8003808A800A901AA01AB01280850
:101B4C00AE07290803110318013E0319AE2DAF0788
:101B5C002A0803110318013E0319B52DB0072B08F1
:101B6C0003110318013E0319BC2DB1073908A80055
:101B7C00A901AA01AB012808B4072908031103180D
:101B8C00013E0319CA2DB5072A0803110318013E9B
:101B9C000319D12DB6072B0803110318013E0319A5
:101BAC00D82DB7070830A8000310AE0DAF0DB00D3F
:101BBC00B10DA80BDA2D2108F00024080A168A159D
:101BCC0030270A128A15710883120313B9007008A2
:101BDC00B8003808A8003908A900AA01AB012808E8
:101BEC00AE07290803110318013E0319FE2DAF0798
:101BFC002A0803110318013E0319052EB0072B0800
:101C0C0003110318013E03190C2EB1072008F00034
:101C1C0025080A168A1530270A128A1571088312AC
:101C2C000313B9007008B8003808A8003908A900D7
:101C3C00AA01AB012808AE07290803110318013EBD
:101C4C000319292EAF072A0803110318013E0319A3
:101C5C00302EB0072B0803110318013E0319372E41
:101C6C00B1070830A8000310AE0DAF0DB00DB10DCB
:101C7C00A80B392E2008F00024080A168A153027E4
:101C8C000A128A15710883120313B9007008B80080
:101C9C003808A8003908A900AA01AB012808AE072A
:101CAC00290803110318013E03195D2EAF072A08FA
:101CBC0003110318013E0319642EB0072B080311FE
:101CCC000318013E03196B2EB1072108F0002608FA
:101CDC000A168A1530270A128A1571088312031303
:101CEC00B9007008B8003808A8003908A900AA0182
:101CFC00AB012808B407290803110318013E031986
:101D0C00882EB5072A0803110318013E03198F2EDC
:101D1C00B6072B0803110318013E0319962EB707BB
:101D2C002208F00025080A168A1530270A128A158F
:101D3C00710883120313B9007008B8003808A800A2
:101D4C003908A900AA01AB012808B4072908031116
:101D5C000318013E0319B32EB5072A080311031803
:101D6C00013E0319BA2EB6072B0803110318013EC6
:101D7C000319C12EB7072208F00026080A168A1587
:101D8C0030270A128A15710883120313B9007008E0
:101D9C00B8003808A8003908A900AA01AB0108301E
:101DAC000310A80DA90DAA0DAB0DFF3E031DD62ED9
:101DBC002808B407290803110318013E0319E72E5C
:101DCC00B5072A0803110318013E0319EE2EB607B6
:101DDC002B0803110318013E0319F52EB7072E0823
:101DEC00A8002F08A9003008AA003108AB00183051
:101DFC000310AB0CAA0CA90CA80CFF3E031DFE2E65
:101E0C002808B407290803110318013E03190F2FE2
:101E1C00B5072A0803110318013E0319162FB6073C
:101E2C002B0803110318013E03191D2FB7070830A7
:101E3C00A8000310AE0DAF0DB00DB10DA80B1F2FE8
:101E4C0033083207A800A901A90D2808823EB80062
:101E5C0029080318013EFF3EB900512F0130A8009C
:101E6C000310B40DB50DB60DB70DA80B362FB11F61
:101E7C00402F412F422F34140130A8000310AE0D17
:101E8C00AF0DB00DB10DA80B442FFF30B8070318E0
:101E9C00B90AFF30B907B61F542F552F342FB20192
:101EAC00B11F592F5A2F762FFF302E05A800FF3067
:101EBC002F05A900FF303005AA007F303105AB009B
:101ECC002B082A042904280403196D2F6E2F712F57
:101EDC000130B200762F341C742F752F762F6E2F95
:101EEC00320803197A2F7B2FAC2F0130B407003046
:101EFC0003180130B507003003180130B607003065
:101F0C0003180130B707371C8C2F8D2FAC2F3408DA
:101F1C00A8003508A9003608AA003708AB00013024
:101F2C00AC002B0DAB0CAA0CA90CA80CAC0B972F6E
:101F3C002B08B7002A08B6002908B5002808B400F9
:101F4C000130B8070318B90A0030B9073908803ACC
:101F5C00FF0080307F02031DB52FFF303802031CB9
:101F6C00B82FB92FC42F7F3083120313B7008030E2
:101F7C00B6000030B5000030B400F52F8312031307
:101F8C003908803AFF0080307F02031DCF2F0130CB
:101F9C0038020318D22FD32FDF2F003083120313F4
:101FAC00B7000030B6000030B5000030B400AD0111
:101FBC00F52F831203133808B300FF30B405FF303C
:101FCC00B5057F30B6050030B705331CEE2FEF2F6B
:101FDC00F02FB6173308A8000310280CB7002D08F3
:101FEC00B7043708A3003608A2003508A10034084E
:101FFC00A0000800FF1B0A2883137F188317000812
:10200C00840A0319FF0A080010308A000408840AA5
:10201C0082070034543465346D3470343A342034CF
:10202C0025342E3431346634203443340034463471
:10203C0061346E3420344D3445344434203400340F
:10204C00463461346E3420344F34463446342034B4
:10205C000034463461346E3420344C344F345734AD
:10206C0020340034463461346E34203448344934DE
:10207C0047344834003469346E34663400346E347A
:06208C0061346E340034E3
:10209E004130831203139F008030831603139F0079
:1020AE000800E230831603179000831603136008AE
:1020BE0083160317910001309200930194019A0147
:1020CE009B01913083160313DC000130DD006108A3
:1020DE00DE009030DF000A168A1557270A168A117D
:1020EE00831603171308831603136007E6006608AA
:1020FE00840083178001080083120313AC1F882805
:10210E0089288B28AB01AC01AD01AE01A52820308A
:10211E00F0000030F100831203132808F2002908A2
:10212E00F3000A168A11D8210A168A110130831279
:10213E000313AD070318AE0A0030AE072E08803A1F
:10214E00FD002C08803A7D02031DAF282B082D02BE
:10215E00031CB228B3288E28831203132A08A0006A
:10216E002808A1002908A2000A168A15D5270A16E2
:10217E008A11080000307005F80000307105F90072
:10218E0080307205FA007F307305FB007B087A04FD
:10219E0079047804031DD428D528DD280030F300F7
:1021AE000030F2000030F1000030F0000030740515
:1021BE00F80000307505F90080307605FA007F30A2
:1021CE007705FB007B087A0479047804031DF02858
:1021DE00F128F9280030F7000030F6000030F50045
:1021EE000030F40077087306031D0729760872067F
:1021FE00031D072975087106031D0729740870064B
:10220E0003190A290B290D2903100E29031408009E
:10221E00FA01FB01760884008313000884000A1675
:10222E008A110A200A168A112A3A031D1F2920290B
:10223E004E297608840001308007770884008317C2
:10224E000008F80002308007780884008313000825
:10225E00FA00840A0008FB005F297B08F1007A0867
:10226E00F0000A30F2000030F3000A168A15BE267E
:10227E000A168A1179087007FA0000300318013027
:10228E007107FB00760884000130831380077608FF
:10229E008400000884000A168A110A200A168A1180
:1022AE00D03EF9000A307902031C5E295F293429D9
:1022BE007B08F7007A08F60008000310720D730D04
:1022CE00F9007908031D6C296D2976290030F30079
:1022DE000030F2000030F1000030F000D729700815
:1022EE00F4007108F5007208F6007308F7001F304D
:1022FE000310F70CF60CF50CF40CFF3E031D7F29B2
:10230E007408F800F217FF30F005FF30F105FF30CA
:10231E00F2050030F3059630F902F91F9729982936
:10232E00B0297908803A973E03189E299F29A02943
:10233E006D2901300310F30CF20CF10CF00CFF3E82
:10234E00031DA1290130F907031DAE29AF29A029CC
:10235E00C72920307902031CB529B629C2296D2957
:10236E000130F4000310F00DF10DF20DF30DF40B2E
:10237E00B9290130F9027908031DC629C729B729E1
:10238E0078080319CB29CC29D729F009F109F209CC
:10239E00F309F00A0319F10A0319F20A0319F30AF1
:1023AE000800720873040319DD29DE29E429720876
:1023BE007304031DE329E429EB2970080A128A111C
:1023CE0006200A168A11712A7208093EF400730853
:1023DE000318013E003EF500740884008317751C37
:1023EE0083130008F600840A0008F70076087704C5
:1023FE000319022A032A352A7208093EF4007308CB
:10240E000318013E003EF500740884008317751C06
:10241E0083130008F600840A0008F7007208023ED3
:10242E00F80073080318013E003EF9007808840096
:10243E008317791C83130008FA00840A0008FB0036
:10244E007B08803AFC007708803A7C02031D312A13
:10245E0076087A020318342A352A712A7208840003
:10246E008317731C83130008F400840A0008F50018
:10247E007208023EF60073080318013E003EF70094
:10248E00760884008317771C831300087407F900FD
:10249E007508F8000318F80A801F562AF803780802
:1024AE00FA007908840083177A1C83137008800061
:1024BE007208023EF40073080318013E003EF50058
:1024CE00740884008317751C831301308007840AF7
:1024DE000318800A08000030831203133A05C20065
:1024EE0000303B05C30080303C05C4007F303D0505
:1024FE00C5004508440443044204031D872A882A64
:10250E00902A0030BD000030BC000030BB0000300F
:10251E00BA0000303E05C20000303F05C3008030D7
:10252E004005C4007F304105C500450844044304FE
:10253E004204031DA32AA42AAC2A0030C100003095
:10254E00C0000030BF000030BE00BD1FAF2AB02A51
:10255E00D42A0030C2000030C3000030C4008030E6
:10256E00C5003A08C2023B08031C3B0FBF2AC02A13
:10257E00C3023C08031C3C0FC52AC62AC4023D08F0
:10258E00031C3D0FCB2ACC2AC5024508BD004408CA
:10259E00BC004308BB004208BA00C11FD72AD82A84
:1025AE00FC2A0030C2000030C3000030C40080306E
:1025BE00C5003E08C2023F08031C3F0FE72AE82A67
:1025CE00C3024008031C400FED2AEE2AC402410844
:1025DE00031C410FF32AF42AC5024508C100440822
:1025EE00C0004308BF004208BE008030BD068030E8
:1025FE00C10641083D02031D0E2B40083C02031D7F
:10260E000E2B3F083B02031D0E2B3E083A02031809
:10261E00112B122B142B0310152B031408008316E9
:10262E000313520884008313000884000A168A11CB
:10263E000A200A168A11253A031D262B272B032C56
:10264E005208840001308007EA01EB010030EE00F1
:10265E00FF30EC00FF30ED005208840000088400CB
:10266E000A168A110A200A168A112E3A031D402BC9
:10267E00412B542B52088400013080075208F6007B
:10268E005308F7000A168A110F210A168A117708C5
:10269E0083160313ED007608EC00520884008313B2
:1026AE000008DB005B0884000A168A110A200A164D
:1026BE008A11DA006A2B0130DB07752B6C30DA00D9
:1026CE00752BDA01752B5A084C3A0319622B2A3AEC
:1026DE000319652B0A3A0319622B682B5B088400D9
:1026EE000A168A110A200A168A11663A031D802BD1
:1026FE00812BFB2BAE2B5308840083170008D400CC
:10270E00043080075408840083130008D600840A1E
:10271E000008D700840A0008D800840A0008D900EF
:10272E00B62B5308840083170008D40004308007AA
:10273E005408840083130008D600840A0008D700CA
:10274E00840A0008D800840A0008D900B62B5A085B
:10275E004C3A0319982B203A0319822BB62B5208A8
:10276E0084005B08013E8000F02B50088312031397
:10277E00E80083160313510883120313E90083162E
:10278E000313590883120313ED008316031358081D
:10279E0083120313EC0083160313570883120313DB
:1027AE00EB0083160313560883120313EA008316F5
:1027BE0003135B0884000A168A110A200A168A116E
:1027CE0083120313EE000A168A111D240A168A11AB
:1027DE001C2C5B0884000A168A110A200A168A111C
:1027EE00663A0319BC2BFB2B831603135208840085
:1027FE000130831380071C2C5208840000088400CB
:10280E000A168A110A200A168A11D400D501540814
:10281E00F0005508F1005008F2005108F3000A16B6
:10282E008A11D8210A168A11FB2B0800831603136E
:10283E00C501831203136D0883160313CB00831295
:10284E0003136C0883160313CA00831203136B0859
:10285E0083160313C900831203136A088316031326
:10286E00C8004B0883120313BD00831603134A08D6
:10287E0083120313BC008316031349088312031338
:10288E00BB0083160313480883120313BA000030EB
:10289E00C1000030C0000030BF000030BE000A167C
:1028AE008A1172220A168A1103185E2C5F2C7A2C5A
:1028BE00013083160313C5004B08F3004A08F200DB
:1028CE004908F1004808F0000A128A1500200A167D
:1028DE008A11730883160313CB007208CA0071089D
:1028EE00C9007008C80083160313C601C7016B0820
:1028FE00B6006A08B50045080319862C872C972C5C
:10290E004508031D8B2C8C2C912C2B30AA000030EB
:10291E00AB00952C2D30AA000030AB002A08C50064
:10292E004B08F3004A08F2004908F1004808F0008D
:10293E000A128A150B200A168A1170037104031DE0
:10294E00A92CAA2CEF2C8316031345080319B02CBF
:10295E00B12CC12C4508831203179000FF3083164B
:10296E000313B5070318B60AFF30B6070130C600C9
:10297E000030C7004608103EF0003230F1000A1653
:10298E008A1560260A168A11FD3083160313B507C1
:10299E000318B60AFF30B607831203136808A8009F
:1029AE006908A9001030AA00831603133608831293
:1029BE000313AC0083160313350883120313AB0005
:1029CE000A168A1183200A168A110A128A11E32F17
:1029DE00831603134B08F3004A08F2004908F1006E
:1029EE004808F0000A128A150B200A168A11700880
:1029FE007104031D032D062D0A128A11CB2883168E
:102A0E000313450803190C2D0D2D1D2D450883129A
:102A1E0003179000FF3083160313B5070318B60A89
:102A2E00FF30B6070130C6000030C7004608103E22
:102A3E00F0003630F1000A168A1560260A168A1141
:102A4E00CB2C83160317390883120313E700831662
:102A5E000317380883120313E6008316031737088B
:102A6E0083120313E500831603173608831203132C
:102A7E00E4005708E7005608E6005508E50054083C
:102A8E00E4006408D8006508D9006608DA00670813
:102A9E00DB0017300310DB0CDA0CD90CD80CFF3E20
:102AAE00031D512DFF305805DC0000305905DD00A7
:102ABE005C08813EE2005D080318013EFF3EE30024
:102ACE006308803AFF0080307F02031D702D17309F
:102ADE006202031C732D742D752D362E8312031373
:102AEE00E31B7A2D7B2DEB2D620AD800FF30D90027
:102AFE00FF30DA007F30DB000030DC008B2D5C0D08
:102B0E00DC0CDB0CDA0CD90CD80B862D5C08E10042
:102B1E005B08E0005A08DF005908DE005E08640515
:102B2E00D8005F086505D90060086605DA006108FF
:102B3E006705DB005B085A0459045804031DA82DD1
:102B4E00A92DAA2D742D6408D8006508D900660831
:102B5E00DA006708DB001F300310DB0CDA0CD90C2F
:102B6E00D80CFF3E031DB32D5B085A0459045804BC
:102B7E000319C22DC32DDA2D5E08E4075F08031179
:102B8E000318013E0319CC2DE50760080311031845
:102B9E00013E0319D32DE607610803110318013E08
:102BAE000319DA2DE7075E09D8005F09D90060091D
:102BBE00DA006109DB005808E4055908E5055A08F2
:102BCE00E6055B08E7052E2E6408D8006508D900D7
:102BDE006608DA006708DB001F300310DB0CDA0C26
:102BEE00D90CD80CFF3E031DF42D5B085A04590472
:102BFE005804031D032E042E0D2E0030E700003066
:102C0E00E6000030E5000030E4002E2E6408D80007
:102C1E006508D9006608DA006708DB00013003108A
:102C2E00D80DD90DDA0DDB0DFF3E031D162E5B08F8
:102C3E005A04590458040319252E262E2E2EBF3061
:102C4E00E7008030E6000030E5000030E400670861
:102C5E00D7006608D6006508D5006408D4000800C1
:102C6E00FF30831603138500870188018312031337
:102C7E00870188010A168A114F200A168A110A1234
:102C8E008A1107200A168A110A168A15AA270A1609
:102C9E008A1100300A168A1509270A168A11710838
:102CAE0083160317B1007008B0004030831203136F
:102CBE00A300A030A2000030A1000030A0008316B7
:102CCE0003173008F0003108F100F201F301003073
:102CDE000A128A1117200A168A1173088312031317
:102CEE00A7007208A6007108A5007008A4000A12B9
:102CFE008A15BE240A168A1183120313230883161B
:102D0E000317AF0083120313220883160317AE00B6
:102D1E0083120313210883160317AD0083120313C6
:102D2E00200883160317AC00443083120313BD0032
:102D3E007F30BC00C030BB000030BA004230A30070
:102D4E00C830A2000030A1000030A0008316031787
:102D5E002F0883120313A700831603172E0883125E
:102D6E000313A600831603172D0883120313A50061
:102D7E00831603172C0883120313A4000A128A1554
:102D8E00BE240A168A11831203132308C1002208D7
:102D9E00C0002108BF002008BE000A128A15982024
:102DAE000A168A11831203133D0883160317B50002
:102DBE00831203133C0883160317B4008312031304
:102DCE003B0883160317B300831203133A088316C6
:102DDE000317B2000A168A1511260A168A119C309C
:102DEE0083160313E0000130E10083160317350844
:102DFE0083160313E5008316031734088316031393
:102E0E00E40083160317330883160313E3008316B7
:102E1E000317320883160313E2000A168A1158208C
:102E2E000A168A119C30F3000130F4000A168A1536
:102E3E00E3260A168A11C0300A168A1521260A16AA
:102E4E008A1183160317350883120313BD008316E8
:102E5E000317340883120313BC00831603173308B9
:102E6E0083120313BB008316031732088312031356
:102E7E00BA004130C100F030C0000030BF00003059
:102E8E00BE000A168A1172220A168A110318502FD2
:102E9E00512F632F0030F000F1000A168A1580279B
:102EAE000A168A111730F3008030F4000A168A15BC
:102EBE00E3260A168A11ED2F83160317350883129F
:102ECE000313BD0083160317340883120313BC00CB
:102EDE0083160317330883120313BB0083160317DD
:102EEE00320883120313BA004230C1000C30C00006
:102EFE000030BF000030BE000A168A1172220A1678
:102F0E008A1103188B2F8C2F9F2FFA30F000003070
:102F1E00F1000A168A1580270A168A112030F3004E
:102F2E008030F4000A168A15E3260A168A11ED2F50
:102F3E0083160317350883120313BD008316031778
:102F4E00340883120313BC0083160317330883124D
:102F5E000313BB0083160317320883120313BA0040
:102F6E004230C1002030C0000030BF000030BE0033
:102F7E000A168A1172220A168A110318C72FC82F31
:102F8E00DB2F5830F0000230F1000A168A15802728
:102F9E000A168A110E30F3008030F4000A168A15D4
:102FAE00E3260A168A11ED2FFF30F0000330F100F0
:102FBE000A168A1580270A168A112930F3008030E6
:102FCE00F4000A168A15E3260A168A110D308316A6
:102FDE000313E900AF30E800B530E700E70BF52F3B
:102FEE00E80BF52FE90BF52FFC2F502E0A128A1144
:022FFE000028A9
:103C120064008001840A04060319003404060A2E93
:103C220001300A168A1521260A168A150D30F4006B
:103C3200FB30F300F30B1B2EF40B1B2E202E08007F
:103C4200F200720883120313880007108710871589
:103C52000D30F100FB30F000F00B2D2EF10B2D2E6C
:103C6200322E8312031387110800F20072088312A6
:103C7200031388000714871087150D30F100FB30FD
:103C8200F000F00B422EF10B422E472E831203134B
:103C920087110800F31B4E2E4F2E502E5F2E7009F7
:103CA200F0007109F1007209F2007309F300F00AE1
:103CB2000319F10A0319F20A0319F30A080070083A
:103CC200F3000130F107FF30710784000A168A11F0
:103CD2000A200A168A15F2007308F30A8400720891
:103CE200831780000008031D772E782E622E0800AD
:103CF2007108F6007008F5008B2E76088400831791
:103D02000008F4000130F60775088400740880008A
:103D12000130F5070130F2020030031CF303F30215
:103D2200720A031D982E730A031D982E992E7E2E59
:103D32000800803083120313BD064108F3004008D7
:103D4200F2003F08F1003E08F0003D08F7003C0891
:103D5200F6003B08F5003A08F4000A128A156222BE
:103D62000A168A15730883120313BD007208BC0079
:103D72007108BB007008BA000800F401F501701C5C
:103D8200C32EC42ECA2E7208F4070318F50A73084C
:103D9200F50701300310F20DF30DFF3E031DCB2E8C
:103DA20001300310F10CF00CFF3E031DD22E7008FF
:103DB2007104031DDD2EDE2EC02E7508F10074087D
:103DC200F0000800F82E7408FF00730884000A1639
:103DD2008A1100200A168A150A168A1536260A162C
:103DE2008A150130F3070318F40A0030F407740847
:103DF20083120313FF00730884000A168A1100203D
:103E02000A168A15003A031D072F082FE42E080010
:103E1200F400C530831203139F057408F2000230C8
:103E22000310F20DFF3E031D112F0310720D9F04AC
:103E32000D30F300FB30F200F20B1D2FF30B1D2FA0
:103E4200222F831203131F151F19282F292F252F05
:103E52001E08F100831603131E08F0000800F80084
:103E6200F401F5017008F200F3017208F60073081C
:103E7200F700781C3D2F3E2F442F7608F4070318D5
:103E8200F50A7708F50701300310F60DF70DFF3E2E
:103E9200031D452F0310F80C7808031D512F522FD4
:103EA2003A2F7508F1007408F00008008316031316
:103EB2005E0883120313EF006D2F831603135C0851
:103EC200D0005D08D1006F30D2005F08D3000A161F
:103ED2008A1116230A168A15831203136F088400A7
:103EE2000A168A110A200A168A15003A031D7A2F29
:103EF2007B2F5E2F83160313DC01DD0108000430E3
:103F02007102003003197002031C882F892F8D2F34
:103F1200FF30F0000330F1007108F3007008F20086
:103F22000310F30CF20C0310F30CF20C7208831260
:103F320003139500CF30970570080339F200033060
:103F42000310F20DFF3E031DA12F0310720D970403
:103F520008008230F400DD30F300F30BAE2FF40BD7
:103F6200AE2FB32F38300A168A1521260A168A1563
:103F72000C300A168A1521260A168A1506300A16E8
:103F82008A1521260A168A1501300A168A15212653
:103F92000A168A152130F4007630F300F30BCF2F86
:103FA200F40BCF2F0000080083120313A601A70110
:103FB200F22F2508A300A4012308F0002408F10031
:103FC2002108F2002208F3000A168A11D8210A16E3
:103FD2008A15013083120313A6070318A70A0030BB
:103FE200A70726082007A3002308840083170008D8
:0E3FF200A5002508031DFE2FFF2FDA2F080063
:02400E007A3FF7
:00000001FF
